{"contracts/Dappazon.sol":{"Dappazon":{"abi":[{"inputs":[],"stateMutability":"nonpayable","type":"constructor"},{"anonymous":false,"inputs":[{"indexed":false,"internalType":"string","name":"name","type":"string"},{"indexed":false,"internalType":"uint256","name":"cost","type":"uint256"},{"indexed":false,"internalType":"uint256","name":"quantity","type":"uint256"}],"name":"List","type":"event"},{"inputs":[{"internalType":"uint256","name":"","type":"uint256"}],"name":"items","outputs":[{"internalType":"uint256","name":"id","type":"uint256"},{"internalType":"string","name":"name","type":"string"},{"internalType":"string","name":"category","type":"string"},{"internalType":"string","name":"image","type":"string"},{"internalType":"uint256","name":"cost","type":"uint256"},{"internalType":"uint256","name":"rating","type":"uint256"},{"internalType":"uint256","name":"stock","type":"uint256"}],"stateMutability":"view","type":"function"},{"inputs":[{"internalType":"uint256","name":"_id","type":"uint256"},{"internalType":"string","name":"_name","type":"string"},{"internalType":"string","name":"_category","type":"string"},{"internalType":"string","name":"_image","type":"string"},{"internalType":"uint256","name":"_cost","type":"uint256"},{"internalType":"uint256","name":"_rating","type":"uint256"},{"internalType":"uint256","name":"_stock","type":"uint256"}],"name":"list","outputs":[],"stateMutability":"nonpayable","type":"function"},{"inputs":[],"name":"name","outputs":[{"internalType":"string","name":"","type":"string"}],"stateMutability":"view","type":"function"},{"inputs":[],"name":"owner","outputs":[{"internalType":"address","name":"","type":"address"}],"stateMutability":"view","type":"function"}],"evm":{"bytecode":{"linkReferences":{},"object":"60806040523480156200001157600080fd5b506040518060400160405280600881526020017f44617070617a6f6e000000000000000000000000000000000000000000000000815250600090816200005891906200031a565b5033600160006101000a81548173ffffffffffffffffffffffffffffffffffffffff021916908373ffffffffffffffffffffffffffffffffffffffff16021790555062000401565b600081519050919050565b7f4e487b7100000000000000000000000000000000000000000000000000000000600052604160045260246000fd5b7f4e487b7100000000000000000000000000000000000000000000000000000000600052602260045260246000fd5b600060028204905060018216806200012257607f821691505b602082108103620001385762000137620000da565b5b50919050565b60008190508160005260206000209050919050565b60006020601f8301049050919050565b600082821b905092915050565b600060088302620001a27fffffffffffffffffffffffffffffffffffffffffffffffffffffffffffffffff8262000163565b620001ae868362000163565b95508019841693508086168417925050509392505050565b6000819050919050565b6000819050919050565b6000620001fb620001f5620001ef84620001c6565b620001d0565b620001c6565b9050919050565b6000819050919050565b6200021783620001da565b6200022f620002268262000202565b84845462000170565b825550505050565b600090565b6200024662000237565b620002538184846200020c565b505050565b5b818110156200027b576200026f6000826200023c565b60018101905062000259565b5050565b601f821115620002ca5762000294816200013e565b6200029f8462000153565b81016020851015620002af578190505b620002c7620002be8562000153565b83018262000258565b50505b505050565b600082821c905092915050565b6000620002ef60001984600802620002cf565b1980831691505092915050565b60006200030a8383620002dc565b9150826002028217905092915050565b6200032582620000a0565b67ffffffffffffffff811115620003415762000340620000ab565b5b6200034d825462000109565b6200035a8282856200027f565b600060209050601f8311600181146200039257600084156200037d578287015190505b620003898582620002fc565b865550620003f9565b601f198416620003a2866200013e565b60005b82811015620003cc57848901518255600182019150602085019450602081019050620003a5565b86831015620003ec5784890151620003e8601f891682620002dc565b8355505b6001600288020188555050505b505050505050565b610c5980620004116000396000f3fe608060405234801561001057600080fd5b506004361061004c5760003560e01c806306fdde03146100515780638da5cb5b1461006f578063bfb231d21461008d578063eea8a7e8146100c3575b600080fd5b6100596100df565b6040516100669190610554565b60405180910390f35b61007761016d565b60405161008491906105b7565b60405180910390f35b6100a760048036038101906100a2919061061c565b610193565b6040516100ba9796959493929190610658565b60405180910390f35b6100dd60048036038101906100d89190610811565b61036d565b005b600080546100ec90610936565b80601f016020809104026020016040519081016040528092919081815260200182805461011890610936565b80156101655780601f1061013a57610100808354040283529160200191610165565b820191906000526020600020905b81548152906001019060200180831161014857829003601f168201915b505050505081565b600160009054906101000a900473ffffffffffffffffffffffffffffffffffffffff1681565b60026020528060005260406000206000915090508060000154908060010180546101bc90610936565b80601f01602080910402602001604051908101604052809291908181526020018280546101e890610936565b80156102355780601f1061020a57610100808354040283529160200191610235565b820191906000526020600020905b81548152906001019060200180831161021857829003601f168201915b50505050509080600201805461024a90610936565b80601f016020809104026020016040519081016040528092919081815260200182805461027690610936565b80156102c35780601f10610298576101008083540402835291602001916102c3565b820191906000526020600020905b8154815290600101906020018083116102a657829003601f168201915b5050505050908060030180546102d890610936565b80601f016020809104026020016040519081016040528092919081815260200182805461030490610936565b80156103515780601f1061032657610100808354040283529160200191610351565b820191906000526020600020905b81548152906001019060200180831161033457829003601f168201915b5050505050908060040154908060050154908060060154905087565b600160009054906101000a900473ffffffffffffffffffffffffffffffffffffffff1673ffffffffffffffffffffffffffffffffffffffff163373ffffffffffffffffffffffffffffffffffffffff16146103c757600080fd5b60006040518060e0016040528089815260200188815260200187815260200186815260200185815260200184815260200183815250905080600260008a81526020019081526020016000206000820151816000015560208201518160010190816104319190610b13565b5060408201518160020190816104479190610b13565b50606082015181600301908161045d9190610b13565b506080820151816004015560a0820151816005015560c082015181600601559050507ffdbe2a012c10ec01592653978eaa09b5ca60b143a0e617505b2ebcbd911ec5b88785846040516104b293929190610be5565b60405180910390a15050505050505050565b600081519050919050565b600082825260208201905092915050565b60005b838110156104fe5780820151818401526020810190506104e3565b60008484015250505050565b6000601f19601f8301169050919050565b6000610526826104c4565b61053081856104cf565b93506105408185602086016104e0565b6105498161050a565b840191505092915050565b6000602082019050818103600083015261056e818461051b565b905092915050565b600073ffffffffffffffffffffffffffffffffffffffff82169050919050565b60006105a182610576565b9050919050565b6105b181610596565b82525050565b60006020820190506105cc60008301846105a8565b92915050565b6000604051905090565b600080fd5b600080fd5b6000819050919050565b6105f9816105e6565b811461060457600080fd5b50565b600081359050610616816105f0565b92915050565b600060208284031215610632576106316105dc565b5b600061064084828501610607565b91505092915050565b610652816105e6565b82525050565b600060e08201905061066d600083018a610649565b818103602083015261067f818961051b565b90508181036040830152610693818861051b565b905081810360608301526106a7818761051b565b90506106b66080830186610649565b6106c360a0830185610649565b6106d060c0830184610649565b98975050505050505050565b600080fd5b600080fd5b7f4e487b7100000000000000000000000000000000000000000000000000000000600052604160045260246000fd5b61071e8261050a565b810181811067ffffffffffffffff8211171561073d5761073c6106e6565b5b80604052505050565b60006107506105d2565b905061075c8282610715565b919050565b600067ffffffffffffffff82111561077c5761077b6106e6565b5b6107858261050a565b9050602081019050919050565b82818337600083830152505050565b60006107b46107af84610761565b610746565b9050828152602081018484840111156107d0576107cf6106e1565b5b6107db848285610792565b509392505050565b600082601f8301126107f8576107f76106dc565b5b81356108088482602086016107a1565b91505092915050565b600080600080600080600060e0888a0312156108305761082f6105dc565b5b600061083e8a828b01610607565b975050602088013567ffffffffffffffff81111561085f5761085e6105e1565b5b61086b8a828b016107e3565b965050604088013567ffffffffffffffff81111561088c5761088b6105e1565b5b6108988a828b016107e3565b955050606088013567ffffffffffffffff8111156108b9576108b86105e1565b5b6108c58a828b016107e3565b94505060806108d68a828b01610607565b93505060a06108e78a828b01610607565b92505060c06108f88a828b01610607565b91505092959891949750929550565b7f4e487b7100000000000000000000000000000000000000000000000000000000600052602260045260246000fd5b6000600282049050600182168061094e57607f821691505b60208210810361096157610960610907565b5b50919050565b60008190508160005260206000209050919050565b60006020601f8301049050919050565b600082821b905092915050565b6000600883026109c97fffffffffffffffffffffffffffffffffffffffffffffffffffffffffffffffff8261098c565b6109d3868361098c565b95508019841693508086168417925050509392505050565b6000819050919050565b6000610a10610a0b610a06846105e6565b6109eb565b6105e6565b9050919050565b6000819050919050565b610a2a836109f5565b610a3e610a3682610a17565b848454610999565b825550505050565b600090565b610a53610a46565b610a5e818484610a21565b505050565b5b81811015610a8257610a77600082610a4b565b600181019050610a64565b5050565b601f821115610ac757610a9881610967565b610aa18461097c565b81016020851015610ab0578190505b610ac4610abc8561097c565b830182610a63565b50505b505050565b600082821c905092915050565b6000610aea60001984600802610acc565b1980831691505092915050565b6000610b038383610ad9565b9150826002028217905092915050565b610b1c826104c4565b67ffffffffffffffff811115610b3557610b346106e6565b5b610b3f8254610936565b610b4a828285610a86565b600060209050601f831160018114610b7d5760008415610b6b578287015190505b610b758582610af7565b865550610bdd565b601f198416610b8b86610967565b60005b82811015610bb357848901518255600182019150602085019450602081019050610b8e565b86831015610bd05784890151610bcc601f891682610ad9565b8355505b6001600288020188555050505b505050505050565b60006060820190508181036000830152610bff818661051b565b9050610c0e6020830185610649565b610c1b6040830184610649565b94935050505056fea264697066735822122007aa24e6506b776593031346b9d89e06a8139c6798e360e56b7833245e01116d64736f6c63430008110033","opcodes":"PUSH1 0x80 PUSH1 0x40 MSTORE CALLVALUE DUP1 ISZERO PUSH3 0x11 JUMPI PUSH1 0x0 DUP1 REVERT JUMPDEST POP PUSH1 0x40 MLOAD DUP1 PUSH1 0x40 ADD PUSH1 0x40 MSTORE DUP1 PUSH1 0x8 DUP2 MSTORE PUSH1 0x20 ADD PUSH32 0x44617070617A6F6E000000000000000000000000000000000000000000000000 DUP2 MSTORE POP PUSH1 0x0 SWAP1 DUP2 PUSH3 0x58 SWAP2 SWAP1 PUSH3 0x31A JUMP JUMPDEST POP CALLER PUSH1 0x1 PUSH1 0x0 PUSH2 0x100 EXP DUP2 SLOAD DUP2 PUSH20 0xFFFFFFFFFFFFFFFFFFFFFFFFFFFFFFFFFFFFFFFF MUL NOT AND SWAP1 DUP4 PUSH20 0xFFFFFFFFFFFFFFFFFFFFFFFFFFFFFFFFFFFFFFFF AND MUL OR SWAP1 SSTORE POP PUSH3 0x401 JUMP JUMPDEST PUSH1 0x0 DUP2 MLOAD SWAP1 POP SWAP2 SWAP1 POP JUMP JUMPDEST PUSH32 0x4E487B7100000000000000000000000000000000000000000000000000000000 PUSH1 0x0 MSTORE PUSH1 0x41 PUSH1 0x4 MSTORE PUSH1 0x24 PUSH1 0x0 REVERT JUMPDEST PUSH32 0x4E487B7100000000000000000000000000000000000000000000000000000000 PUSH1 0x0 MSTORE PUSH1 0x22 PUSH1 0x4 MSTORE PUSH1 0x24 PUSH1 0x0 REVERT JUMPDEST PUSH1 0x0 PUSH1 0x2 DUP3 DIV SWAP1 POP PUSH1 0x1 DUP3 AND DUP1 PUSH3 0x122 JUMPI PUSH1 0x7F DUP3 AND SWAP2 POP JUMPDEST PUSH1 0x20 DUP3 LT DUP2 SUB PUSH3 0x138 JUMPI PUSH3 0x137 PUSH3 0xDA JUMP JUMPDEST JUMPDEST POP SWAP2 SWAP1 POP JUMP JUMPDEST PUSH1 0x0 DUP2 SWAP1 POP DUP2 PUSH1 0x0 MSTORE PUSH1 0x20 PUSH1 0x0 KECCAK256 SWAP1 POP SWAP2 SWAP1 POP JUMP JUMPDEST PUSH1 0x0 PUSH1 0x20 PUSH1 0x1F DUP4 ADD DIV SWAP1 POP SWAP2 SWAP1 POP JUMP JUMPDEST PUSH1 0x0 DUP3 DUP3 SHL SWAP1 POP SWAP3 SWAP2 POP POP JUMP JUMPDEST PUSH1 0x0 PUSH1 0x8 DUP4 MUL PUSH3 0x1A2 PUSH32 0xFFFFFFFFFFFFFFFFFFFFFFFFFFFFFFFFFFFFFFFFFFFFFFFFFFFFFFFFFFFFFFFF DUP3 PUSH3 0x163 JUMP JUMPDEST PUSH3 0x1AE DUP7 DUP4 PUSH3 0x163 JUMP JUMPDEST SWAP6 POP DUP1 NOT DUP5 AND SWAP4 POP DUP1 DUP7 AND DUP5 OR SWAP3 POP POP POP SWAP4 SWAP3 POP POP POP JUMP JUMPDEST PUSH1 0x0 DUP2 SWAP1 POP SWAP2 SWAP1 POP JUMP JUMPDEST PUSH1 0x0 DUP2 SWAP1 POP SWAP2 SWAP1 POP JUMP JUMPDEST PUSH1 0x0 PUSH3 0x1FB PUSH3 0x1F5 PUSH3 0x1EF DUP5 PUSH3 0x1C6 JUMP JUMPDEST PUSH3 0x1D0 JUMP JUMPDEST PUSH3 0x1C6 JUMP JUMPDEST SWAP1 POP SWAP2 SWAP1 POP JUMP JUMPDEST PUSH1 0x0 DUP2 SWAP1 POP SWAP2 SWAP1 POP JUMP JUMPDEST PUSH3 0x217 DUP4 PUSH3 0x1DA JUMP JUMPDEST PUSH3 0x22F PUSH3 0x226 DUP3 PUSH3 0x202 JUMP JUMPDEST DUP5 DUP5 SLOAD PUSH3 0x170 JUMP JUMPDEST DUP3 SSTORE POP POP POP POP JUMP JUMPDEST PUSH1 0x0 SWAP1 JUMP JUMPDEST PUSH3 0x246 PUSH3 0x237 JUMP JUMPDEST PUSH3 0x253 DUP2 DUP5 DUP5 PUSH3 0x20C JUMP JUMPDEST POP POP POP JUMP JUMPDEST JUMPDEST DUP2 DUP2 LT ISZERO PUSH3 0x27B JUMPI PUSH3 0x26F PUSH1 0x0 DUP3 PUSH3 0x23C JUMP JUMPDEST PUSH1 0x1 DUP2 ADD SWAP1 POP PUSH3 0x259 JUMP JUMPDEST POP POP JUMP JUMPDEST PUSH1 0x1F DUP3 GT ISZERO PUSH3 0x2CA JUMPI PUSH3 0x294 DUP2 PUSH3 0x13E JUMP JUMPDEST PUSH3 0x29F DUP5 PUSH3 0x153 JUMP JUMPDEST DUP2 ADD PUSH1 0x20 DUP6 LT ISZERO PUSH3 0x2AF JUMPI DUP2 SWAP1 POP JUMPDEST PUSH3 0x2C7 PUSH3 0x2BE DUP6 PUSH3 0x153 JUMP JUMPDEST DUP4 ADD DUP3 PUSH3 0x258 JUMP JUMPDEST POP POP JUMPDEST POP POP POP JUMP JUMPDEST PUSH1 0x0 DUP3 DUP3 SHR SWAP1 POP SWAP3 SWAP2 POP POP JUMP JUMPDEST PUSH1 0x0 PUSH3 0x2EF PUSH1 0x0 NOT DUP5 PUSH1 0x8 MUL PUSH3 0x2CF JUMP JUMPDEST NOT DUP1 DUP4 AND SWAP2 POP POP SWAP3 SWAP2 POP POP JUMP JUMPDEST PUSH1 0x0 PUSH3 0x30A DUP4 DUP4 PUSH3 0x2DC JUMP JUMPDEST SWAP2 POP DUP3 PUSH1 0x2 MUL DUP3 OR SWAP1 POP SWAP3 SWAP2 POP POP JUMP JUMPDEST PUSH3 0x325 DUP3 PUSH3 0xA0 JUMP JUMPDEST PUSH8 0xFFFFFFFFFFFFFFFF DUP2 GT ISZERO PUSH3 0x341 JUMPI PUSH3 0x340 PUSH3 0xAB JUMP JUMPDEST JUMPDEST PUSH3 0x34D DUP3 SLOAD PUSH3 0x109 JUMP JUMPDEST PUSH3 0x35A DUP3 DUP3 DUP6 PUSH3 0x27F JUMP JUMPDEST PUSH1 0x0 PUSH1 0x20 SWAP1 POP PUSH1 0x1F DUP4 GT PUSH1 0x1 DUP2 EQ PUSH3 0x392 JUMPI PUSH1 0x0 DUP5 ISZERO PUSH3 0x37D JUMPI DUP3 DUP8 ADD MLOAD SWAP1 POP JUMPDEST PUSH3 0x389 DUP6 DUP3 PUSH3 0x2FC JUMP JUMPDEST DUP7 SSTORE POP PUSH3 0x3F9 JUMP JUMPDEST PUSH1 0x1F NOT DUP5 AND PUSH3 0x3A2 DUP7 PUSH3 0x13E JUMP JUMPDEST PUSH1 0x0 JUMPDEST DUP3 DUP2 LT ISZERO PUSH3 0x3CC JUMPI DUP5 DUP10 ADD MLOAD DUP3 SSTORE PUSH1 0x1 DUP3 ADD SWAP2 POP PUSH1 0x20 DUP6 ADD SWAP5 POP PUSH1 0x20 DUP2 ADD SWAP1 POP PUSH3 0x3A5 JUMP JUMPDEST DUP7 DUP4 LT ISZERO PUSH3 0x3EC JUMPI DUP5 DUP10 ADD MLOAD PUSH3 0x3E8 PUSH1 0x1F DUP10 AND DUP3 PUSH3 0x2DC JUMP JUMPDEST DUP4 SSTORE POP JUMPDEST PUSH1 0x1 PUSH1 0x2 DUP9 MUL ADD DUP9 SSTORE POP POP POP JUMPDEST POP POP POP POP POP POP JUMP JUMPDEST PUSH2 0xC59 DUP1 PUSH3 0x411 PUSH1 0x0 CODECOPY PUSH1 0x0 RETURN INVALID PUSH1 0x80 PUSH1 0x40 MSTORE CALLVALUE DUP1 ISZERO PUSH2 0x10 JUMPI PUSH1 0x0 DUP1 REVERT JUMPDEST POP PUSH1 0x4 CALLDATASIZE LT PUSH2 0x4C JUMPI PUSH1 0x0 CALLDATALOAD PUSH1 0xE0 SHR DUP1 PUSH4 0x6FDDE03 EQ PUSH2 0x51 JUMPI DUP1 PUSH4 0x8DA5CB5B EQ PUSH2 0x6F JUMPI DUP1 PUSH4 0xBFB231D2 EQ PUSH2 0x8D JUMPI DUP1 PUSH4 0xEEA8A7E8 EQ PUSH2 0xC3 JUMPI JUMPDEST PUSH1 0x0 DUP1 REVERT JUMPDEST PUSH2 0x59 PUSH2 0xDF JUMP JUMPDEST PUSH1 0x40 MLOAD PUSH2 0x66 SWAP2 SWAP1 PUSH2 0x554 JUMP JUMPDEST PUSH1 0x40 MLOAD DUP1 SWAP2 SUB SWAP1 RETURN JUMPDEST PUSH2 0x77 PUSH2 0x16D JUMP JUMPDEST PUSH1 0x40 MLOAD PUSH2 0x84 SWAP2 SWAP1 PUSH2 0x5B7 JUMP JUMPDEST PUSH1 0x40 MLOAD DUP1 SWAP2 SUB SWAP1 RETURN JUMPDEST PUSH2 0xA7 PUSH1 0x4 DUP1 CALLDATASIZE SUB DUP2 ADD SWAP1 PUSH2 0xA2 SWAP2 SWAP1 PUSH2 0x61C JUMP JUMPDEST PUSH2 0x193 JUMP JUMPDEST PUSH1 0x40 MLOAD PUSH2 0xBA SWAP8 SWAP7 SWAP6 SWAP5 SWAP4 SWAP3 SWAP2 SWAP1 PUSH2 0x658 JUMP JUMPDEST PUSH1 0x40 MLOAD DUP1 SWAP2 SUB SWAP1 RETURN JUMPDEST PUSH2 0xDD PUSH1 0x4 DUP1 CALLDATASIZE SUB DUP2 ADD SWAP1 PUSH2 0xD8 SWAP2 SWAP1 PUSH2 0x811 JUMP JUMPDEST PUSH2 0x36D JUMP JUMPDEST STOP JUMPDEST PUSH1 0x0 DUP1 SLOAD PUSH2 0xEC SWAP1 PUSH2 0x936 JUMP JUMPDEST DUP1 PUSH1 0x1F ADD PUSH1 0x20 DUP1 SWAP2 DIV MUL PUSH1 0x20 ADD PUSH1 0x40 MLOAD SWAP1 DUP2 ADD PUSH1 0x40 MSTORE DUP1 SWAP3 SWAP2 SWAP1 DUP2 DUP2 MSTORE PUSH1 0x20 ADD DUP3 DUP1 SLOAD PUSH2 0x118 SWAP1 PUSH2 0x936 JUMP JUMPDEST DUP1 ISZERO PUSH2 0x165 JUMPI DUP1 PUSH1 0x1F LT PUSH2 0x13A JUMPI PUSH2 0x100 DUP1 DUP4 SLOAD DIV MUL DUP4 MSTORE SWAP2 PUSH1 0x20 ADD SWAP2 PUSH2 0x165 JUMP JUMPDEST DUP3 ADD SWAP2 SWAP1 PUSH1 0x0 MSTORE PUSH1 0x20 PUSH1 0x0 KECCAK256 SWAP1 JUMPDEST DUP2 SLOAD DUP2 MSTORE SWAP1 PUSH1 0x1 ADD SWAP1 PUSH1 0x20 ADD DUP1 DUP4 GT PUSH2 0x148 JUMPI DUP3 SWAP1 SUB PUSH1 0x1F AND DUP3 ADD SWAP2 JUMPDEST POP POP POP POP POP DUP2 JUMP JUMPDEST PUSH1 0x1 PUSH1 0x0 SWAP1 SLOAD SWAP1 PUSH2 0x100 EXP SWAP1 DIV PUSH20 0xFFFFFFFFFFFFFFFFFFFFFFFFFFFFFFFFFFFFFFFF AND DUP2 JUMP JUMPDEST PUSH1 0x2 PUSH1 0x20 MSTORE DUP1 PUSH1 0x0 MSTORE PUSH1 0x40 PUSH1 0x0 KECCAK256 PUSH1 0x0 SWAP2 POP SWAP1 POP DUP1 PUSH1 0x0 ADD SLOAD SWAP1 DUP1 PUSH1 0x1 ADD DUP1 SLOAD PUSH2 0x1BC SWAP1 PUSH2 0x936 JUMP JUMPDEST DUP1 PUSH1 0x1F ADD PUSH1 0x20 DUP1 SWAP2 DIV MUL PUSH1 0x20 ADD PUSH1 0x40 MLOAD SWAP1 DUP2 ADD PUSH1 0x40 MSTORE DUP1 SWAP3 SWAP2 SWAP1 DUP2 DUP2 MSTORE PUSH1 0x20 ADD DUP3 DUP1 SLOAD PUSH2 0x1E8 SWAP1 PUSH2 0x936 JUMP JUMPDEST DUP1 ISZERO PUSH2 0x235 JUMPI DUP1 PUSH1 0x1F LT PUSH2 0x20A JUMPI PUSH2 0x100 DUP1 DUP4 SLOAD DIV MUL DUP4 MSTORE SWAP2 PUSH1 0x20 ADD SWAP2 PUSH2 0x235 JUMP JUMPDEST DUP3 ADD SWAP2 SWAP1 PUSH1 0x0 MSTORE PUSH1 0x20 PUSH1 0x0 KECCAK256 SWAP1 JUMPDEST DUP2 SLOAD DUP2 MSTORE SWAP1 PUSH1 0x1 ADD SWAP1 PUSH1 0x20 ADD DUP1 DUP4 GT PUSH2 0x218 JUMPI DUP3 SWAP1 SUB PUSH1 0x1F AND DUP3 ADD SWAP2 JUMPDEST POP POP POP POP POP SWAP1 DUP1 PUSH1 0x2 ADD DUP1 SLOAD PUSH2 0x24A SWAP1 PUSH2 0x936 JUMP JUMPDEST DUP1 PUSH1 0x1F ADD PUSH1 0x20 DUP1 SWAP2 DIV MUL PUSH1 0x20 ADD PUSH1 0x40 MLOAD SWAP1 DUP2 ADD PUSH1 0x40 MSTORE DUP1 SWAP3 SWAP2 SWAP1 DUP2 DUP2 MSTORE PUSH1 0x20 ADD DUP3 DUP1 SLOAD PUSH2 0x276 SWAP1 PUSH2 0x936 JUMP JUMPDEST DUP1 ISZERO PUSH2 0x2C3 JUMPI DUP1 PUSH1 0x1F LT PUSH2 0x298 JUMPI PUSH2 0x100 DUP1 DUP4 SLOAD DIV MUL DUP4 MSTORE SWAP2 PUSH1 0x20 ADD SWAP2 PUSH2 0x2C3 JUMP JUMPDEST DUP3 ADD SWAP2 SWAP1 PUSH1 0x0 MSTORE PUSH1 0x20 PUSH1 0x0 KECCAK256 SWAP1 JUMPDEST DUP2 SLOAD DUP2 MSTORE SWAP1 PUSH1 0x1 ADD SWAP1 PUSH1 0x20 ADD DUP1 DUP4 GT PUSH2 0x2A6 JUMPI DUP3 SWAP1 SUB PUSH1 0x1F AND DUP3 ADD SWAP2 JUMPDEST POP POP POP POP POP SWAP1 DUP1 PUSH1 0x3 ADD DUP1 SLOAD PUSH2 0x2D8 SWAP1 PUSH2 0x936 JUMP JUMPDEST DUP1 PUSH1 0x1F ADD PUSH1 0x20 DUP1 SWAP2 DIV MUL PUSH1 0x20 ADD PUSH1 0x40 MLOAD SWAP1 DUP2 ADD PUSH1 0x40 MSTORE DUP1 SWAP3 SWAP2 SWAP1 DUP2 DUP2 MSTORE PUSH1 0x20 ADD DUP3 DUP1 SLOAD PUSH2 0x304 SWAP1 PUSH2 0x936 JUMP JUMPDEST DUP1 ISZERO PUSH2 0x351 JUMPI DUP1 PUSH1 0x1F LT PUSH2 0x326 JUMPI PUSH2 0x100 DUP1 DUP4 SLOAD DIV MUL DUP4 MSTORE SWAP2 PUSH1 0x20 ADD SWAP2 PUSH2 0x351 JUMP JUMPDEST DUP3 ADD SWAP2 SWAP1 PUSH1 0x0 MSTORE PUSH1 0x20 PUSH1 0x0 KECCAK256 SWAP1 JUMPDEST DUP2 SLOAD DUP2 MSTORE SWAP1 PUSH1 0x1 ADD SWAP1 PUSH1 0x20 ADD DUP1 DUP4 GT PUSH2 0x334 JUMPI DUP3 SWAP1 SUB PUSH1 0x1F AND DUP3 ADD SWAP2 JUMPDEST POP POP POP POP POP SWAP1 DUP1 PUSH1 0x4 ADD SLOAD SWAP1 DUP1 PUSH1 0x5 ADD SLOAD SWAP1 DUP1 PUSH1 0x6 ADD SLOAD SWAP1 POP DUP8 JUMP JUMPDEST PUSH1 0x1 PUSH1 0x0 SWAP1 SLOAD SWAP1 PUSH2 0x100 EXP SWAP1 DIV PUSH20 0xFFFFFFFFFFFFFFFFFFFFFFFFFFFFFFFFFFFFFFFF AND PUSH20 0xFFFFFFFFFFFFFFFFFFFFFFFFFFFFFFFFFFFFFFFF AND CALLER PUSH20 0xFFFFFFFFFFFFFFFFFFFFFFFFFFFFFFFFFFFFFFFF AND EQ PUSH2 0x3C7 JUMPI PUSH1 0x0 DUP1 REVERT JUMPDEST PUSH1 0x0 PUSH1 0x40 MLOAD DUP1 PUSH1 0xE0 ADD PUSH1 0x40 MSTORE DUP1 DUP10 DUP2 MSTORE PUSH1 0x20 ADD DUP9 DUP2 MSTORE PUSH1 0x20 ADD DUP8 DUP2 MSTORE PUSH1 0x20 ADD DUP7 DUP2 MSTORE PUSH1 0x20 ADD DUP6 DUP2 MSTORE PUSH1 0x20 ADD DUP5 DUP2 MSTORE PUSH1 0x20 ADD DUP4 DUP2 MSTORE POP SWAP1 POP DUP1 PUSH1 0x2 PUSH1 0x0 DUP11 DUP2 MSTORE PUSH1 0x20 ADD SWAP1 DUP2 MSTORE PUSH1 0x20 ADD PUSH1 0x0 KECCAK256 PUSH1 0x0 DUP3 ADD MLOAD DUP2 PUSH1 0x0 ADD SSTORE PUSH1 0x20 DUP3 ADD MLOAD DUP2 PUSH1 0x1 ADD SWAP1 DUP2 PUSH2 0x431 SWAP2 SWAP1 PUSH2 0xB13 JUMP JUMPDEST POP PUSH1 0x40 DUP3 ADD MLOAD DUP2 PUSH1 0x2 ADD SWAP1 DUP2 PUSH2 0x447 SWAP2 SWAP1 PUSH2 0xB13 JUMP JUMPDEST POP PUSH1 0x60 DUP3 ADD MLOAD DUP2 PUSH1 0x3 ADD SWAP1 DUP2 PUSH2 0x45D SWAP2 SWAP1 PUSH2 0xB13 JUMP JUMPDEST POP PUSH1 0x80 DUP3 ADD MLOAD DUP2 PUSH1 0x4 ADD SSTORE PUSH1 0xA0 DUP3 ADD MLOAD DUP2 PUSH1 0x5 ADD SSTORE PUSH1 0xC0 DUP3 ADD MLOAD DUP2 PUSH1 0x6 ADD SSTORE SWAP1 POP POP PUSH32 0xFDBE2A012C10EC01592653978EAA09B5CA60B143A0E617505B2EBCBD911EC5B8 DUP8 DUP6 DUP5 PUSH1 0x40 MLOAD PUSH2 0x4B2 SWAP4 SWAP3 SWAP2 SWAP1 PUSH2 0xBE5 JUMP JUMPDEST PUSH1 0x40 MLOAD DUP1 SWAP2 SUB SWAP1 LOG1 POP POP POP POP POP POP POP POP JUMP JUMPDEST PUSH1 0x0 DUP2 MLOAD SWAP1 POP SWAP2 SWAP1 POP JUMP JUMPDEST PUSH1 0x0 DUP3 DUP3 MSTORE PUSH1 0x20 DUP3 ADD SWAP1 POP SWAP3 SWAP2 POP POP JUMP JUMPDEST PUSH1 0x0 JUMPDEST DUP4 DUP2 LT ISZERO PUSH2 0x4FE JUMPI DUP1 DUP3 ADD MLOAD DUP2 DUP5 ADD MSTORE PUSH1 0x20 DUP2 ADD SWAP1 POP PUSH2 0x4E3 JUMP JUMPDEST PUSH1 0x0 DUP5 DUP5 ADD MSTORE POP POP POP POP JUMP JUMPDEST PUSH1 0x0 PUSH1 0x1F NOT PUSH1 0x1F DUP4 ADD AND SWAP1 POP SWAP2 SWAP1 POP JUMP JUMPDEST PUSH1 0x0 PUSH2 0x526 DUP3 PUSH2 0x4C4 JUMP JUMPDEST PUSH2 0x530 DUP2 DUP6 PUSH2 0x4CF JUMP JUMPDEST SWAP4 POP PUSH2 0x540 DUP2 DUP6 PUSH1 0x20 DUP7 ADD PUSH2 0x4E0 JUMP JUMPDEST PUSH2 0x549 DUP2 PUSH2 0x50A JUMP JUMPDEST DUP5 ADD SWAP2 POP POP SWAP3 SWAP2 POP POP JUMP JUMPDEST PUSH1 0x0 PUSH1 0x20 DUP3 ADD SWAP1 POP DUP2 DUP2 SUB PUSH1 0x0 DUP4 ADD MSTORE PUSH2 0x56E DUP2 DUP5 PUSH2 0x51B JUMP JUMPDEST SWAP1 POP SWAP3 SWAP2 POP POP JUMP JUMPDEST PUSH1 0x0 PUSH20 0xFFFFFFFFFFFFFFFFFFFFFFFFFFFFFFFFFFFFFFFF DUP3 AND SWAP1 POP SWAP2 SWAP1 POP JUMP JUMPDEST PUSH1 0x0 PUSH2 0x5A1 DUP3 PUSH2 0x576 JUMP JUMPDEST SWAP1 POP SWAP2 SWAP1 POP JUMP JUMPDEST PUSH2 0x5B1 DUP2 PUSH2 0x596 JUMP JUMPDEST DUP3 MSTORE POP POP JUMP JUMPDEST PUSH1 0x0 PUSH1 0x20 DUP3 ADD SWAP1 POP PUSH2 0x5CC PUSH1 0x0 DUP4 ADD DUP5 PUSH2 0x5A8 JUMP JUMPDEST SWAP3 SWAP2 POP POP JUMP JUMPDEST PUSH1 0x0 PUSH1 0x40 MLOAD SWAP1 POP SWAP1 JUMP JUMPDEST PUSH1 0x0 DUP1 REVERT JUMPDEST PUSH1 0x0 DUP1 REVERT JUMPDEST PUSH1 0x0 DUP2 SWAP1 POP SWAP2 SWAP1 POP JUMP JUMPDEST PUSH2 0x5F9 DUP2 PUSH2 0x5E6 JUMP JUMPDEST DUP2 EQ PUSH2 0x604 JUMPI PUSH1 0x0 DUP1 REVERT JUMPDEST POP JUMP JUMPDEST PUSH1 0x0 DUP2 CALLDATALOAD SWAP1 POP PUSH2 0x616 DUP2 PUSH2 0x5F0 JUMP JUMPDEST SWAP3 SWAP2 POP POP JUMP JUMPDEST PUSH1 0x0 PUSH1 0x20 DUP3 DUP5 SUB SLT ISZERO PUSH2 0x632 JUMPI PUSH2 0x631 PUSH2 0x5DC JUMP JUMPDEST JUMPDEST PUSH1 0x0 PUSH2 0x640 DUP5 DUP3 DUP6 ADD PUSH2 0x607 JUMP JUMPDEST SWAP2 POP POP SWAP3 SWAP2 POP POP JUMP JUMPDEST PUSH2 0x652 DUP2 PUSH2 0x5E6 JUMP JUMPDEST DUP3 MSTORE POP POP JUMP JUMPDEST PUSH1 0x0 PUSH1 0xE0 DUP3 ADD SWAP1 POP PUSH2 0x66D PUSH1 0x0 DUP4 ADD DUP11 PUSH2 0x649 JUMP JUMPDEST DUP2 DUP2 SUB PUSH1 0x20 DUP4 ADD MSTORE PUSH2 0x67F DUP2 DUP10 PUSH2 0x51B JUMP JUMPDEST SWAP1 POP DUP2 DUP2 SUB PUSH1 0x40 DUP4 ADD MSTORE PUSH2 0x693 DUP2 DUP9 PUSH2 0x51B JUMP JUMPDEST SWAP1 POP DUP2 DUP2 SUB PUSH1 0x60 DUP4 ADD MSTORE PUSH2 0x6A7 DUP2 DUP8 PUSH2 0x51B JUMP JUMPDEST SWAP1 POP PUSH2 0x6B6 PUSH1 0x80 DUP4 ADD DUP7 PUSH2 0x649 JUMP JUMPDEST PUSH2 0x6C3 PUSH1 0xA0 DUP4 ADD DUP6 PUSH2 0x649 JUMP JUMPDEST PUSH2 0x6D0 PUSH1 0xC0 DUP4 ADD DUP5 PUSH2 0x649 JUMP JUMPDEST SWAP9 SWAP8 POP POP POP POP POP POP POP POP JUMP JUMPDEST PUSH1 0x0 DUP1 REVERT JUMPDEST PUSH1 0x0 DUP1 REVERT JUMPDEST PUSH32 0x4E487B7100000000000000000000000000000000000000000000000000000000 PUSH1 0x0 MSTORE PUSH1 0x41 PUSH1 0x4 MSTORE PUSH1 0x24 PUSH1 0x0 REVERT JUMPDEST PUSH2 0x71E DUP3 PUSH2 0x50A JUMP JUMPDEST DUP2 ADD DUP2 DUP2 LT PUSH8 0xFFFFFFFFFFFFFFFF DUP3 GT OR ISZERO PUSH2 0x73D JUMPI PUSH2 0x73C PUSH2 0x6E6 JUMP JUMPDEST JUMPDEST DUP1 PUSH1 0x40 MSTORE POP POP POP JUMP JUMPDEST PUSH1 0x0 PUSH2 0x750 PUSH2 0x5D2 JUMP JUMPDEST SWAP1 POP PUSH2 0x75C DUP3 DUP3 PUSH2 0x715 JUMP JUMPDEST SWAP2 SWAP1 POP JUMP JUMPDEST PUSH1 0x0 PUSH8 0xFFFFFFFFFFFFFFFF DUP3 GT ISZERO PUSH2 0x77C JUMPI PUSH2 0x77B PUSH2 0x6E6 JUMP JUMPDEST JUMPDEST PUSH2 0x785 DUP3 PUSH2 0x50A JUMP JUMPDEST SWAP1 POP PUSH1 0x20 DUP2 ADD SWAP1 POP SWAP2 SWAP1 POP JUMP JUMPDEST DUP3 DUP2 DUP4 CALLDATACOPY PUSH1 0x0 DUP4 DUP4 ADD MSTORE POP POP POP JUMP JUMPDEST PUSH1 0x0 PUSH2 0x7B4 PUSH2 0x7AF DUP5 PUSH2 0x761 JUMP JUMPDEST PUSH2 0x746 JUMP JUMPDEST SWAP1 POP DUP3 DUP2 MSTORE PUSH1 0x20 DUP2 ADD DUP5 DUP5 DUP5 ADD GT ISZERO PUSH2 0x7D0 JUMPI PUSH2 0x7CF PUSH2 0x6E1 JUMP JUMPDEST JUMPDEST PUSH2 0x7DB DUP5 DUP3 DUP6 PUSH2 0x792 JUMP JUMPDEST POP SWAP4 SWAP3 POP POP POP JUMP JUMPDEST PUSH1 0x0 DUP3 PUSH1 0x1F DUP4 ADD SLT PUSH2 0x7F8 JUMPI PUSH2 0x7F7 PUSH2 0x6DC JUMP JUMPDEST JUMPDEST DUP2 CALLDATALOAD PUSH2 0x808 DUP5 DUP3 PUSH1 0x20 DUP7 ADD PUSH2 0x7A1 JUMP JUMPDEST SWAP2 POP POP SWAP3 SWAP2 POP POP JUMP JUMPDEST PUSH1 0x0 DUP1 PUSH1 0x0 DUP1 PUSH1 0x0 DUP1 PUSH1 0x0 PUSH1 0xE0 DUP9 DUP11 SUB SLT ISZERO PUSH2 0x830 JUMPI PUSH2 0x82F PUSH2 0x5DC JUMP JUMPDEST JUMPDEST PUSH1 0x0 PUSH2 0x83E DUP11 DUP3 DUP12 ADD PUSH2 0x607 JUMP JUMPDEST SWAP8 POP POP PUSH1 0x20 DUP9 ADD CALLDATALOAD PUSH8 0xFFFFFFFFFFFFFFFF DUP2 GT ISZERO PUSH2 0x85F JUMPI PUSH2 0x85E PUSH2 0x5E1 JUMP JUMPDEST JUMPDEST PUSH2 0x86B DUP11 DUP3 DUP12 ADD PUSH2 0x7E3 JUMP JUMPDEST SWAP7 POP POP PUSH1 0x40 DUP9 ADD CALLDATALOAD PUSH8 0xFFFFFFFFFFFFFFFF DUP2 GT ISZERO PUSH2 0x88C JUMPI PUSH2 0x88B PUSH2 0x5E1 JUMP JUMPDEST JUMPDEST PUSH2 0x898 DUP11 DUP3 DUP12 ADD PUSH2 0x7E3 JUMP JUMPDEST SWAP6 POP POP PUSH1 0x60 DUP9 ADD CALLDATALOAD PUSH8 0xFFFFFFFFFFFFFFFF DUP2 GT ISZERO PUSH2 0x8B9 JUMPI PUSH2 0x8B8 PUSH2 0x5E1 JUMP JUMPDEST JUMPDEST PUSH2 0x8C5 DUP11 DUP3 DUP12 ADD PUSH2 0x7E3 JUMP JUMPDEST SWAP5 POP POP PUSH1 0x80 PUSH2 0x8D6 DUP11 DUP3 DUP12 ADD PUSH2 0x607 JUMP JUMPDEST SWAP4 POP POP PUSH1 0xA0 PUSH2 0x8E7 DUP11 DUP3 DUP12 ADD PUSH2 0x607 JUMP JUMPDEST SWAP3 POP POP PUSH1 0xC0 PUSH2 0x8F8 DUP11 DUP3 DUP12 ADD PUSH2 0x607 JUMP JUMPDEST SWAP2 POP POP SWAP3 SWAP6 SWAP9 SWAP2 SWAP5 SWAP8 POP SWAP3 SWAP6 POP JUMP JUMPDEST PUSH32 0x4E487B7100000000000000000000000000000000000000000000000000000000 PUSH1 0x0 MSTORE PUSH1 0x22 PUSH1 0x4 MSTORE PUSH1 0x24 PUSH1 0x0 REVERT JUMPDEST PUSH1 0x0 PUSH1 0x2 DUP3 DIV SWAP1 POP PUSH1 0x1 DUP3 AND DUP1 PUSH2 0x94E JUMPI PUSH1 0x7F DUP3 AND SWAP2 POP JUMPDEST PUSH1 0x20 DUP3 LT DUP2 SUB PUSH2 0x961 JUMPI PUSH2 0x960 PUSH2 0x907 JUMP JUMPDEST JUMPDEST POP SWAP2 SWAP1 POP JUMP JUMPDEST PUSH1 0x0 DUP2 SWAP1 POP DUP2 PUSH1 0x0 MSTORE PUSH1 0x20 PUSH1 0x0 KECCAK256 SWAP1 POP SWAP2 SWAP1 POP JUMP JUMPDEST PUSH1 0x0 PUSH1 0x20 PUSH1 0x1F DUP4 ADD DIV SWAP1 POP SWAP2 SWAP1 POP JUMP JUMPDEST PUSH1 0x0 DUP3 DUP3 SHL SWAP1 POP SWAP3 SWAP2 POP POP JUMP JUMPDEST PUSH1 0x0 PUSH1 0x8 DUP4 MUL PUSH2 0x9C9 PUSH32 0xFFFFFFFFFFFFFFFFFFFFFFFFFFFFFFFFFFFFFFFFFFFFFFFFFFFFFFFFFFFFFFFF DUP3 PUSH2 0x98C JUMP JUMPDEST PUSH2 0x9D3 DUP7 DUP4 PUSH2 0x98C JUMP JUMPDEST SWAP6 POP DUP1 NOT DUP5 AND SWAP4 POP DUP1 DUP7 AND DUP5 OR SWAP3 POP POP POP SWAP4 SWAP3 POP POP POP JUMP JUMPDEST PUSH1 0x0 DUP2 SWAP1 POP SWAP2 SWAP1 POP JUMP JUMPDEST PUSH1 0x0 PUSH2 0xA10 PUSH2 0xA0B PUSH2 0xA06 DUP5 PUSH2 0x5E6 JUMP JUMPDEST PUSH2 0x9EB JUMP JUMPDEST PUSH2 0x5E6 JUMP JUMPDEST SWAP1 POP SWAP2 SWAP1 POP JUMP JUMPDEST PUSH1 0x0 DUP2 SWAP1 POP SWAP2 SWAP1 POP JUMP JUMPDEST PUSH2 0xA2A DUP4 PUSH2 0x9F5 JUMP JUMPDEST PUSH2 0xA3E PUSH2 0xA36 DUP3 PUSH2 0xA17 JUMP JUMPDEST DUP5 DUP5 SLOAD PUSH2 0x999 JUMP JUMPDEST DUP3 SSTORE POP POP POP POP JUMP JUMPDEST PUSH1 0x0 SWAP1 JUMP JUMPDEST PUSH2 0xA53 PUSH2 0xA46 JUMP JUMPDEST PUSH2 0xA5E DUP2 DUP5 DUP5 PUSH2 0xA21 JUMP JUMPDEST POP POP POP JUMP JUMPDEST JUMPDEST DUP2 DUP2 LT ISZERO PUSH2 0xA82 JUMPI PUSH2 0xA77 PUSH1 0x0 DUP3 PUSH2 0xA4B JUMP JUMPDEST PUSH1 0x1 DUP2 ADD SWAP1 POP PUSH2 0xA64 JUMP JUMPDEST POP POP JUMP JUMPDEST PUSH1 0x1F DUP3 GT ISZERO PUSH2 0xAC7 JUMPI PUSH2 0xA98 DUP2 PUSH2 0x967 JUMP JUMPDEST PUSH2 0xAA1 DUP5 PUSH2 0x97C JUMP JUMPDEST DUP2 ADD PUSH1 0x20 DUP6 LT ISZERO PUSH2 0xAB0 JUMPI DUP2 SWAP1 POP JUMPDEST PUSH2 0xAC4 PUSH2 0xABC DUP6 PUSH2 0x97C JUMP JUMPDEST DUP4 ADD DUP3 PUSH2 0xA63 JUMP JUMPDEST POP POP JUMPDEST POP POP POP JUMP JUMPDEST PUSH1 0x0 DUP3 DUP3 SHR SWAP1 POP SWAP3 SWAP2 POP POP JUMP JUMPDEST PUSH1 0x0 PUSH2 0xAEA PUSH1 0x0 NOT DUP5 PUSH1 0x8 MUL PUSH2 0xACC JUMP JUMPDEST NOT DUP1 DUP4 AND SWAP2 POP POP SWAP3 SWAP2 POP POP JUMP JUMPDEST PUSH1 0x0 PUSH2 0xB03 DUP4 DUP4 PUSH2 0xAD9 JUMP JUMPDEST SWAP2 POP DUP3 PUSH1 0x2 MUL DUP3 OR SWAP1 POP SWAP3 SWAP2 POP POP JUMP JUMPDEST PUSH2 0xB1C DUP3 PUSH2 0x4C4 JUMP JUMPDEST PUSH8 0xFFFFFFFFFFFFFFFF DUP2 GT ISZERO PUSH2 0xB35 JUMPI PUSH2 0xB34 PUSH2 0x6E6 JUMP JUMPDEST JUMPDEST PUSH2 0xB3F DUP3 SLOAD PUSH2 0x936 JUMP JUMPDEST PUSH2 0xB4A DUP3 DUP3 DUP6 PUSH2 0xA86 JUMP JUMPDEST PUSH1 0x0 PUSH1 0x20 SWAP1 POP PUSH1 0x1F DUP4 GT PUSH1 0x1 DUP2 EQ PUSH2 0xB7D JUMPI PUSH1 0x0 DUP5 ISZERO PUSH2 0xB6B JUMPI DUP3 DUP8 ADD MLOAD SWAP1 POP JUMPDEST PUSH2 0xB75 DUP6 DUP3 PUSH2 0xAF7 JUMP JUMPDEST DUP7 SSTORE POP PUSH2 0xBDD JUMP JUMPDEST PUSH1 0x1F NOT DUP5 AND PUSH2 0xB8B DUP7 PUSH2 0x967 JUMP JUMPDEST PUSH1 0x0 JUMPDEST DUP3 DUP2 LT ISZERO PUSH2 0xBB3 JUMPI DUP5 DUP10 ADD MLOAD DUP3 SSTORE PUSH1 0x1 DUP3 ADD SWAP2 POP PUSH1 0x20 DUP6 ADD SWAP5 POP PUSH1 0x20 DUP2 ADD SWAP1 POP PUSH2 0xB8E JUMP JUMPDEST DUP7 DUP4 LT ISZERO PUSH2 0xBD0 JUMPI DUP5 DUP10 ADD MLOAD PUSH2 0xBCC PUSH1 0x1F DUP10 AND DUP3 PUSH2 0xAD9 JUMP JUMPDEST DUP4 SSTORE POP JUMPDEST PUSH1 0x1 PUSH1 0x2 DUP9 MUL ADD DUP9 SSTORE POP POP POP JUMPDEST POP POP POP POP POP POP JUMP JUMPDEST PUSH1 0x0 PUSH1 0x60 DUP3 ADD SWAP1 POP DUP2 DUP2 SUB PUSH1 0x0 DUP4 ADD MSTORE PUSH2 0xBFF DUP2 DUP7 PUSH2 0x51B JUMP JUMPDEST SWAP1 POP PUSH2 0xC0E PUSH1 0x20 DUP4 ADD DUP6 PUSH2 0x649 JUMP JUMPDEST PUSH2 0xC1B PUSH1 0x40 DUP4 ADD DUP5 PUSH2 0x649 JUMP JUMPDEST SWAP5 SWAP4 POP POP POP POP JUMP INVALID LOG2 PUSH5 0x6970667358 0x22 SLT KECCAK256 SMOD 0xAA 0x24 0xE6 POP PUSH12 0x776593031346B9D89E06A813 SWAP13 PUSH8 0x98E360E56B783324 0x5E ADD GT PUSH14 0x64736F6C63430008110033000000 "},"methodIdentifiers":{"items(uint256)":"bfb231d2","list(uint256,string,string,string,uint256,uint256,uint256)":"eea8a7e8","name()":"06fdde03","owner()":"8da5cb5b"}}}}}