{
  "_format": "hh-sol-artifact-1",
  "contractName": "Dappazon",
  "sourceName": "contracts/Dappazon.sol",
  "abi": [
    {
      "inputs": [],
      "stateMutability": "nonpayable",
      "type": "constructor"
    },
    {
      "anonymous": false,
      "inputs": [
        {
          "indexed": false,
          "internalType": "address",
          "name": "buyer",
          "type": "address"
        },
        {
          "indexed": false,
          "internalType": "uint256",
          "name": "orderId",
          "type": "uint256"
        },
        {
          "indexed": false,
          "internalType": "uint256",
          "name": "itemId",
          "type": "uint256"
        }
      ],
      "name": "Buy",
      "type": "event"
    },
    {
      "anonymous": false,
      "inputs": [
        {
          "indexed": false,
          "internalType": "string",
          "name": "name",
          "type": "string"
        },
        {
          "indexed": false,
          "internalType": "uint256",
          "name": "cost",
          "type": "uint256"
        },
        {
          "indexed": false,
          "internalType": "uint256",
          "name": "quantity",
          "type": "uint256"
        }
      ],
      "name": "List",
      "type": "event"
    },
    {
      "inputs": [
        {
          "internalType": "uint256",
          "name": "_id",
          "type": "uint256"
        }
      ],
      "name": "buy",
      "outputs": [],
      "stateMutability": "payable",
      "type": "function"
    },
    {
      "inputs": [
        {
          "internalType": "uint256",
          "name": "",
          "type": "uint256"
        }
      ],
      "name": "items",
      "outputs": [
        {
          "internalType": "uint256",
          "name": "id",
          "type": "uint256"
        },
        {
          "internalType": "string",
          "name": "name",
          "type": "string"
        },
        {
          "internalType": "string",
          "name": "category",
          "type": "string"
        },
        {
          "internalType": "string",
          "name": "image",
          "type": "string"
        },
        {
          "internalType": "uint256",
          "name": "cost",
          "type": "uint256"
        },
        {
          "internalType": "uint256",
          "name": "rating",
          "type": "uint256"
        },
        {
          "internalType": "uint256",
          "name": "stock",
          "type": "uint256"
        }
      ],
      "stateMutability": "view",
      "type": "function"
    },
    {
      "inputs": [
        {
          "internalType": "uint256",
          "name": "_id",
          "type": "uint256"
        },
        {
          "internalType": "string",
          "name": "_name",
          "type": "string"
        },
        {
          "internalType": "string",
          "name": "_category",
          "type": "string"
        },
        {
          "internalType": "string",
          "name": "_image",
          "type": "string"
        },
        {
          "internalType": "uint256",
          "name": "_cost",
          "type": "uint256"
        },
        {
          "internalType": "uint256",
          "name": "_rating",
          "type": "uint256"
        },
        {
          "internalType": "uint256",
          "name": "_stock",
          "type": "uint256"
        }
      ],
      "name": "list",
      "outputs": [],
      "stateMutability": "nonpayable",
      "type": "function"
    },
    {
      "inputs": [],
      "name": "name",
      "outputs": [
        {
          "internalType": "string",
          "name": "",
          "type": "string"
        }
      ],
      "stateMutability": "view",
      "type": "function"
    },
    {
      "inputs": [
        {
          "internalType": "address",
          "name": "",
          "type": "address"
        }
      ],
      "name": "orderCount",
      "outputs": [
        {
          "internalType": "uint256",
          "name": "",
          "type": "uint256"
        }
      ],
      "stateMutability": "view",
      "type": "function"
    },
    {
      "inputs": [
        {
          "internalType": "address",
          "name": "",
          "type": "address"
        },
        {
          "internalType": "uint256",
          "name": "",
          "type": "uint256"
        }
      ],
      "name": "orders",
      "outputs": [
        {
          "internalType": "uint256",
          "name": "time",
          "type": "uint256"
        },
        {
          "components": [
            {
              "internalType": "uint256",
              "name": "id",
              "type": "uint256"
            },
            {
              "internalType": "string",
              "name": "name",
              "type": "string"
            },
            {
              "internalType": "string",
              "name": "category",
              "type": "string"
            },
            {
              "internalType": "string",
              "name": "image",
              "type": "string"
            },
            {
              "internalType": "uint256",
              "name": "cost",
              "type": "uint256"
            },
            {
              "internalType": "uint256",
              "name": "rating",
              "type": "uint256"
            },
            {
              "internalType": "uint256",
              "name": "stock",
              "type": "uint256"
            }
          ],
          "internalType": "struct Dappazon.Item",
          "name": "item",
          "type": "tuple"
        }
      ],
      "stateMutability": "view",
      "type": "function"
    },
    {
      "inputs": [],
      "name": "owner",
      "outputs": [
        {
          "internalType": "address",
          "name": "",
          "type": "address"
        }
      ],
      "stateMutability": "view",
      "type": "function"
    }
  ],
  "bytecode": "0x60806040523480156200001157600080fd5b506040518060400160405280600881526020017f44617070617a6f6e000000000000000000000000000000000000000000000000815250600090816200005891906200031a565b5033600160006101000a81548173ffffffffffffffffffffffffffffffffffffffff021916908373ffffffffffffffffffffffffffffffffffffffff16021790555062000401565b600081519050919050565b7f4e487b7100000000000000000000000000000000000000000000000000000000600052604160045260246000fd5b7f4e487b7100000000000000000000000000000000000000000000000000000000600052602260045260246000fd5b600060028204905060018216806200012257607f821691505b602082108103620001385762000137620000da565b5b50919050565b60008190508160005260206000209050919050565b60006020601f8301049050919050565b600082821b905092915050565b600060088302620001a27fffffffffffffffffffffffffffffffffffffffffffffffffffffffffffffffff8262000163565b620001ae868362000163565b95508019841693508086168417925050509392505050565b6000819050919050565b6000819050919050565b6000620001fb620001f5620001ef84620001c6565b620001d0565b620001c6565b9050919050565b6000819050919050565b6200021783620001da565b6200022f620002268262000202565b84845462000170565b825550505050565b600090565b6200024662000237565b620002538184846200020c565b505050565b5b818110156200027b576200026f6000826200023c565b60018101905062000259565b5050565b601f821115620002ca5762000294816200013e565b6200029f8462000153565b81016020851015620002af578190505b620002c7620002be8562000153565b83018262000258565b50505b505050565b600082821c905092915050565b6000620002ef60001984600802620002cf565b1980831691505092915050565b60006200030a8383620002dc565b9150826002028217905092915050565b6200032582620000a0565b67ffffffffffffffff811115620003415762000340620000ab565b5b6200034d825462000109565b6200035a8282856200027f565b600060209050601f8311600181146200039257600084156200037d578287015190505b620003898582620002fc565b865550620003f9565b601f198416620003a2866200013e565b60005b82811015620003cc57848901518255600182019150602085019450602081019050620003a5565b86831015620003ec5784890151620003e8601f891682620002dc565b8355505b6001600288020188555050505b505050505050565b61167080620004116000396000f3fe6080604052600436106100705760003560e01c80638da5cb5b1161004e5780638da5cb5b1461011b578063bfb231d214610146578063d96a094a14610189578063eea8a7e8146101a557610070565b806306fdde0314610075578063713d856b146100a0578063793b8c6d146100dd575b600080fd5b34801561008157600080fd5b5061008a6101ce565b6040516100979190610ca2565b60405180910390f35b3480156100ac57600080fd5b506100c760048036038101906100c29190610d36565b61025c565b6040516100d49190610d7c565b60405180910390f35b3480156100e957600080fd5b5061010460048036038101906100ff9190610dc3565b610274565b604051610112929190610f06565b60405180910390f35b34801561012757600080fd5b5061013061048d565b60405161013d9190610f45565b60405180910390f35b34801561015257600080fd5b5061016d60048036038101906101689190610f60565b6104b3565b6040516101809796959493929190610f8d565b60405180910390f35b6101a3600480360381019061019e9190610f60565b61068d565b005b3480156101b157600080fd5b506101cc60048036038101906101c79190611146565b610abb565b005b600080546101db9061126b565b80601f01602080910402602001604051908101604052809291908181526020018280546102079061126b565b80156102545780601f1061022957610100808354040283529160200191610254565b820191906000526020600020905b81548152906001019060200180831161023757829003601f168201915b505050505081565b60036020528060005260406000206000915090505481565b600460205281600052604060002060205280600052604060002060009150915050806000015490806001016040518060e0016040529081600082015481526020016001820180546102c49061126b565b80601f01602080910402602001604051908101604052809291908181526020018280546102f09061126b565b801561033d5780601f106103125761010080835404028352916020019161033d565b820191906000526020600020905b81548152906001019060200180831161032057829003601f168201915b505050505081526020016002820180546103569061126b565b80601f01602080910402602001604051908101604052809291908181526020018280546103829061126b565b80156103cf5780601f106103a4576101008083540402835291602001916103cf565b820191906000526020600020905b8154815290600101906020018083116103b257829003601f168201915b505050505081526020016003820180546103e89061126b565b80601f01602080910402602001604051908101604052809291908181526020018280546104149061126b565b80156104615780601f1061043657610100808354040283529160200191610461565b820191906000526020600020905b81548152906001019060200180831161044457829003601f168201915b505050505081526020016004820154815260200160058201548152602001600682015481525050905082565b600160009054906101000a900473ffffffffffffffffffffffffffffffffffffffff1681565b60026020528060005260406000206000915090508060000154908060010180546104dc9061126b565b80601f01602080910402602001604051908101604052809291908181526020018280546105089061126b565b80156105555780601f1061052a57610100808354040283529160200191610555565b820191906000526020600020905b81548152906001019060200180831161053857829003601f168201915b50505050509080600201805461056a9061126b565b80601f01602080910402602001604051908101604052809291908181526020018280546105969061126b565b80156105e35780601f106105b8576101008083540402835291602001916105e3565b820191906000526020600020905b8154815290600101906020018083116105c657829003601f168201915b5050505050908060030180546105f89061126b565b80601f01602080910402602001604051908101604052809291908181526020018280546106249061126b565b80156106715780601f1061064657610100808354040283529160200191610671565b820191906000526020600020905b81548152906001019060200180831161065457829003601f168201915b5050505050908060040154908060050154908060060154905087565b6000600260008381526020019081526020016000206040518060e0016040529081600082015481526020016001820180546106c79061126b565b80601f01602080910402602001604051908101604052809291908181526020018280546106f39061126b565b80156107405780601f1061071557610100808354040283529160200191610740565b820191906000526020600020905b81548152906001019060200180831161072357829003601f168201915b505050505081526020016002820180546107599061126b565b80601f01602080910402602001604051908101604052809291908181526020018280546107859061126b565b80156107d25780601f106107a7576101008083540402835291602001916107d2565b820191906000526020600020905b8154815290600101906020018083116107b557829003601f168201915b505050505081526020016003820180546107eb9061126b565b80601f01602080910402602001604051908101604052809291908181526020018280546108179061126b565b80156108645780601f1061083957610100808354040283529160200191610864565b820191906000526020600020905b81548152906001019060200180831161084757829003601f168201915b505050505081526020016004820154815260200160058201548152602001600682015481525050905060006040518060400160405280428152602001838152509050600360003373ffffffffffffffffffffffffffffffffffffffff1673ffffffffffffffffffffffffffffffffffffffff16815260200190815260200160002060008154809291906108f6906112cb565b919050555080600460003373ffffffffffffffffffffffffffffffffffffffff1673ffffffffffffffffffffffffffffffffffffffff1681526020019081526020016000206000600360003373ffffffffffffffffffffffffffffffffffffffff1673ffffffffffffffffffffffffffffffffffffffff168152602001908152602001600020548152602001908152602001600020600082015181600001556020820151816001016000820151816000015560208201518160010190816109bd91906114bf565b5060408201518160020190816109d391906114bf565b5060608201518160030190816109e991906114bf565b506080820151816004015560a0820151816005015560c08201518160060155505090505060018260c00151610a1e9190611591565b60026000858152602001908152602001600020600601819055507f1cbc5ab135991bd2b6a4b034a04aa2aa086dac1371cb9b16b8b5e2ed6b036bed33600360003373ffffffffffffffffffffffffffffffffffffffff1673ffffffffffffffffffffffffffffffffffffffff168152602001908152602001600020548460000151604051610aae939291906115c5565b60405180910390a1505050565b600160009054906101000a900473ffffffffffffffffffffffffffffffffffffffff1673ffffffffffffffffffffffffffffffffffffffff163373ffffffffffffffffffffffffffffffffffffffff1614610b1557600080fd5b60006040518060e0016040528089815260200188815260200187815260200186815260200185815260200184815260200183815250905080600260008a8152602001908152602001600020600082015181600001556020820151816001019081610b7f91906114bf565b506040820151816002019081610b9591906114bf565b506060820151816003019081610bab91906114bf565b506080820151816004015560a0820151816005015560c082015181600601559050507ffdbe2a012c10ec01592653978eaa09b5ca60b143a0e617505b2ebcbd911ec5b8878584604051610c00939291906115fc565b60405180910390a15050505050505050565b600081519050919050565b600082825260208201905092915050565b60005b83811015610c4c578082015181840152602081019050610c31565b60008484015250505050565b6000601f19601f8301169050919050565b6000610c7482610c12565b610c7e8185610c1d565b9350610c8e818560208601610c2e565b610c9781610c58565b840191505092915050565b60006020820190508181036000830152610cbc8184610c69565b905092915050565b6000604051905090565b600080fd5b600080fd5b600073ffffffffffffffffffffffffffffffffffffffff82169050919050565b6000610d0382610cd8565b9050919050565b610d1381610cf8565b8114610d1e57600080fd5b50565b600081359050610d3081610d0a565b92915050565b600060208284031215610d4c57610d4b610cce565b5b6000610d5a84828501610d21565b91505092915050565b6000819050919050565b610d7681610d63565b82525050565b6000602082019050610d916000830184610d6d565b92915050565b610da081610d63565b8114610dab57600080fd5b50565b600081359050610dbd81610d97565b92915050565b60008060408385031215610dda57610dd9610cce565b5b6000610de885828601610d21565b9250506020610df985828601610dae565b9150509250929050565b610e0c81610d63565b82525050565b600082825260208201905092915050565b6000610e2e82610c12565b610e388185610e12565b9350610e48818560208601610c2e565b610e5181610c58565b840191505092915050565b600060e083016000830151610e746000860182610e03565b5060208301518482036020860152610e8c8282610e23565b91505060408301518482036040860152610ea68282610e23565b91505060608301518482036060860152610ec08282610e23565b9150506080830151610ed56080860182610e03565b5060a0830151610ee860a0860182610e03565b5060c0830151610efb60c0860182610e03565b508091505092915050565b6000604082019050610f1b6000830185610d6d565b8181036020830152610f2d8184610e5c565b90509392505050565b610f3f81610cf8565b82525050565b6000602082019050610f5a6000830184610f36565b92915050565b600060208284031215610f7657610f75610cce565b5b6000610f8484828501610dae565b91505092915050565b600060e082019050610fa2600083018a610d6d565b8181036020830152610fb48189610c69565b90508181036040830152610fc88188610c69565b90508181036060830152610fdc8187610c69565b9050610feb6080830186610d6d565b610ff860a0830185610d6d565b61100560c0830184610d6d565b98975050505050505050565b600080fd5b600080fd5b7f4e487b7100000000000000000000000000000000000000000000000000000000600052604160045260246000fd5b61105382610c58565b810181811067ffffffffffffffff821117156110725761107161101b565b5b80604052505050565b6000611085610cc4565b9050611091828261104a565b919050565b600067ffffffffffffffff8211156110b1576110b061101b565b5b6110ba82610c58565b9050602081019050919050565b82818337600083830152505050565b60006110e96110e484611096565b61107b565b90508281526020810184848401111561110557611104611016565b5b6111108482856110c7565b509392505050565b600082601f83011261112d5761112c611011565b5b813561113d8482602086016110d6565b91505092915050565b600080600080600080600060e0888a03121561116557611164610cce565b5b60006111738a828b01610dae565b975050602088013567ffffffffffffffff81111561119457611193610cd3565b5b6111a08a828b01611118565b965050604088013567ffffffffffffffff8111156111c1576111c0610cd3565b5b6111cd8a828b01611118565b955050606088013567ffffffffffffffff8111156111ee576111ed610cd3565b5b6111fa8a828b01611118565b945050608061120b8a828b01610dae565b93505060a061121c8a828b01610dae565b92505060c061122d8a828b01610dae565b91505092959891949750929550565b7f4e487b7100000000000000000000000000000000000000000000000000000000600052602260045260246000fd5b6000600282049050600182168061128357607f821691505b6020821081036112965761129561123c565b5b50919050565b7f4e487b7100000000000000000000000000000000000000000000000000000000600052601160045260246000fd5b60006112d682610d63565b91507fffffffffffffffffffffffffffffffffffffffffffffffffffffffffffffffff82036113085761130761129c565b5b600182019050919050565b60008190508160005260206000209050919050565b60006020601f8301049050919050565b600082821b905092915050565b6000600883026113757fffffffffffffffffffffffffffffffffffffffffffffffffffffffffffffffff82611338565b61137f8683611338565b95508019841693508086168417925050509392505050565b6000819050919050565b60006113bc6113b76113b284610d63565b611397565b610d63565b9050919050565b6000819050919050565b6113d6836113a1565b6113ea6113e2826113c3565b848454611345565b825550505050565b600090565b6113ff6113f2565b61140a8184846113cd565b505050565b5b8181101561142e576114236000826113f7565b600181019050611410565b5050565b601f8211156114735761144481611313565b61144d84611328565b8101602085101561145c578190505b61147061146885611328565b83018261140f565b50505b505050565b600082821c905092915050565b600061149660001984600802611478565b1980831691505092915050565b60006114af8383611485565b9150826002028217905092915050565b6114c882610c12565b67ffffffffffffffff8111156114e1576114e061101b565b5b6114eb825461126b565b6114f6828285611432565b600060209050601f8311600181146115295760008415611517578287015190505b61152185826114a3565b865550611589565b601f19841661153786611313565b60005b8281101561155f5784890151825560018201915060208501945060208101905061153a565b8683101561157c5784890151611578601f891682611485565b8355505b6001600288020188555050505b505050505050565b600061159c82610d63565b91506115a783610d63565b92508282039050818111156115bf576115be61129c565b5b92915050565b60006060820190506115da6000830186610f36565b6115e76020830185610d6d565b6115f46040830184610d6d565b949350505050565b600060608201905081810360008301526116168186610c69565b90506116256020830185610d6d565b6116326040830184610d6d565b94935050505056fea264697066735822122006167d8c9967705b9bf3bad3b0643e85145d9f495bda8ae649162d62bfa55fd764736f6c63430008110033",
  "linkReferences": {},
  "deployedLinkReferences": {}
}