{
  "_format": "hh-sol-artifact-1",
  "contractName": "Dappazon",
  "sourceName": "contracts/Dappazon.sol",
  "abi": [
    {
      "inputs": [],
      "stateMutability": "nonpayable",
      "type": "constructor"
    },
    {
      "anonymous": false,
      "inputs": [
        {
          "indexed": false,
          "internalType": "string",
          "name": "name",
          "type": "string"
        },
        {
          "indexed": false,
          "internalType": "uint256",
          "name": "cost",
          "type": "uint256"
        },
        {
          "indexed": false,
          "internalType": "uint256",
          "name": "quantity",
          "type": "uint256"
        }
      ],
      "name": "List",
      "type": "event"
    },
    {
      "inputs": [
        {
          "internalType": "uint256",
          "name": "",
          "type": "uint256"
        }
      ],
      "name": "items",
      "outputs": [
        {
          "internalType": "uint256",
          "name": "id",
          "type": "uint256"
        },
        {
          "internalType": "string",
          "name": "name",
          "type": "string"
        },
        {
          "internalType": "string",
          "name": "category",
          "type": "string"
        },
        {
          "internalType": "string",
          "name": "image",
          "type": "string"
        },
        {
          "internalType": "uint256",
          "name": "cost",
          "type": "uint256"
        },
        {
          "internalType": "uint256",
          "name": "rating",
          "type": "uint256"
        },
        {
          "internalType": "uint256",
          "name": "stock",
          "type": "uint256"
        }
      ],
      "stateMutability": "view",
      "type": "function"
    },
    {
      "inputs": [
        {
          "internalType": "uint256",
          "name": "_id",
          "type": "uint256"
        },
        {
          "internalType": "string",
          "name": "_name",
          "type": "string"
        },
        {
          "internalType": "string",
          "name": "_category",
          "type": "string"
        },
        {
          "internalType": "string",
          "name": "_image",
          "type": "string"
        },
        {
          "internalType": "uint256",
          "name": "_cost",
          "type": "uint256"
        },
        {
          "internalType": "uint256",
          "name": "_rating",
          "type": "uint256"
        },
        {
          "internalType": "uint256",
          "name": "_stock",
          "type": "uint256"
        }
      ],
      "name": "list",
      "outputs": [],
      "stateMutability": "nonpayable",
      "type": "function"
    },
    {
      "inputs": [],
      "name": "name",
      "outputs": [
        {
          "internalType": "string",
          "name": "",
          "type": "string"
        }
      ],
      "stateMutability": "view",
      "type": "function"
    },
    {
      "inputs": [],
      "name": "owner",
      "outputs": [
        {
          "internalType": "address",
          "name": "",
          "type": "address"
        }
      ],
      "stateMutability": "view",
      "type": "function"
    }
  ],
  "bytecode": "0x60806040523480156200001157600080fd5b506040518060400160405280600881526020017f44617070617a6f6e000000000000000000000000000000000000000000000000815250600090816200005891906200031a565b5033600160006101000a81548173ffffffffffffffffffffffffffffffffffffffff021916908373ffffffffffffffffffffffffffffffffffffffff16021790555062000401565b600081519050919050565b7f4e487b7100000000000000000000000000000000000000000000000000000000600052604160045260246000fd5b7f4e487b7100000000000000000000000000000000000000000000000000000000600052602260045260246000fd5b600060028204905060018216806200012257607f821691505b602082108103620001385762000137620000da565b5b50919050565b60008190508160005260206000209050919050565b60006020601f8301049050919050565b600082821b905092915050565b600060088302620001a27fffffffffffffffffffffffffffffffffffffffffffffffffffffffffffffffff8262000163565b620001ae868362000163565b95508019841693508086168417925050509392505050565b6000819050919050565b6000819050919050565b6000620001fb620001f5620001ef84620001c6565b620001d0565b620001c6565b9050919050565b6000819050919050565b6200021783620001da565b6200022f620002268262000202565b84845462000170565b825550505050565b600090565b6200024662000237565b620002538184846200020c565b505050565b5b818110156200027b576200026f6000826200023c565b60018101905062000259565b5050565b601f821115620002ca5762000294816200013e565b6200029f8462000153565b81016020851015620002af578190505b620002c7620002be8562000153565b83018262000258565b50505b505050565b600082821c905092915050565b6000620002ef60001984600802620002cf565b1980831691505092915050565b60006200030a8383620002dc565b9150826002028217905092915050565b6200032582620000a0565b67ffffffffffffffff811115620003415762000340620000ab565b5b6200034d825462000109565b6200035a8282856200027f565b600060209050601f8311600181146200039257600084156200037d578287015190505b620003898582620002fc565b865550620003f9565b601f198416620003a2866200013e565b60005b82811015620003cc57848901518255600182019150602085019450602081019050620003a5565b86831015620003ec5784890151620003e8601f891682620002dc565b8355505b6001600288020188555050505b505050505050565b610c5980620004116000396000f3fe608060405234801561001057600080fd5b506004361061004c5760003560e01c806306fdde03146100515780638da5cb5b1461006f578063bfb231d21461008d578063eea8a7e8146100c3575b600080fd5b6100596100df565b6040516100669190610554565b60405180910390f35b61007761016d565b60405161008491906105b7565b60405180910390f35b6100a760048036038101906100a2919061061c565b610193565b6040516100ba9796959493929190610658565b60405180910390f35b6100dd60048036038101906100d89190610811565b61036d565b005b600080546100ec90610936565b80601f016020809104026020016040519081016040528092919081815260200182805461011890610936565b80156101655780601f1061013a57610100808354040283529160200191610165565b820191906000526020600020905b81548152906001019060200180831161014857829003601f168201915b505050505081565b600160009054906101000a900473ffffffffffffffffffffffffffffffffffffffff1681565b60026020528060005260406000206000915090508060000154908060010180546101bc90610936565b80601f01602080910402602001604051908101604052809291908181526020018280546101e890610936565b80156102355780601f1061020a57610100808354040283529160200191610235565b820191906000526020600020905b81548152906001019060200180831161021857829003601f168201915b50505050509080600201805461024a90610936565b80601f016020809104026020016040519081016040528092919081815260200182805461027690610936565b80156102c35780601f10610298576101008083540402835291602001916102c3565b820191906000526020600020905b8154815290600101906020018083116102a657829003601f168201915b5050505050908060030180546102d890610936565b80601f016020809104026020016040519081016040528092919081815260200182805461030490610936565b80156103515780601f1061032657610100808354040283529160200191610351565b820191906000526020600020905b81548152906001019060200180831161033457829003601f168201915b5050505050908060040154908060050154908060060154905087565b600160009054906101000a900473ffffffffffffffffffffffffffffffffffffffff1673ffffffffffffffffffffffffffffffffffffffff163373ffffffffffffffffffffffffffffffffffffffff16146103c757600080fd5b60006040518060e0016040528089815260200188815260200187815260200186815260200185815260200184815260200183815250905080600260008a81526020019081526020016000206000820151816000015560208201518160010190816104319190610b13565b5060408201518160020190816104479190610b13565b50606082015181600301908161045d9190610b13565b506080820151816004015560a0820151816005015560c082015181600601559050507ffdbe2a012c10ec01592653978eaa09b5ca60b143a0e617505b2ebcbd911ec5b88785846040516104b293929190610be5565b60405180910390a15050505050505050565b600081519050919050565b600082825260208201905092915050565b60005b838110156104fe5780820151818401526020810190506104e3565b60008484015250505050565b6000601f19601f8301169050919050565b6000610526826104c4565b61053081856104cf565b93506105408185602086016104e0565b6105498161050a565b840191505092915050565b6000602082019050818103600083015261056e818461051b565b905092915050565b600073ffffffffffffffffffffffffffffffffffffffff82169050919050565b60006105a182610576565b9050919050565b6105b181610596565b82525050565b60006020820190506105cc60008301846105a8565b92915050565b6000604051905090565b600080fd5b600080fd5b6000819050919050565b6105f9816105e6565b811461060457600080fd5b50565b600081359050610616816105f0565b92915050565b600060208284031215610632576106316105dc565b5b600061064084828501610607565b91505092915050565b610652816105e6565b82525050565b600060e08201905061066d600083018a610649565b818103602083015261067f818961051b565b90508181036040830152610693818861051b565b905081810360608301526106a7818761051b565b90506106b66080830186610649565b6106c360a0830185610649565b6106d060c0830184610649565b98975050505050505050565b600080fd5b600080fd5b7f4e487b7100000000000000000000000000000000000000000000000000000000600052604160045260246000fd5b61071e8261050a565b810181811067ffffffffffffffff8211171561073d5761073c6106e6565b5b80604052505050565b60006107506105d2565b905061075c8282610715565b919050565b600067ffffffffffffffff82111561077c5761077b6106e6565b5b6107858261050a565b9050602081019050919050565b82818337600083830152505050565b60006107b46107af84610761565b610746565b9050828152602081018484840111156107d0576107cf6106e1565b5b6107db848285610792565b509392505050565b600082601f8301126107f8576107f76106dc565b5b81356108088482602086016107a1565b91505092915050565b600080600080600080600060e0888a0312156108305761082f6105dc565b5b600061083e8a828b01610607565b975050602088013567ffffffffffffffff81111561085f5761085e6105e1565b5b61086b8a828b016107e3565b965050604088013567ffffffffffffffff81111561088c5761088b6105e1565b5b6108988a828b016107e3565b955050606088013567ffffffffffffffff8111156108b9576108b86105e1565b5b6108c58a828b016107e3565b94505060806108d68a828b01610607565b93505060a06108e78a828b01610607565b92505060c06108f88a828b01610607565b91505092959891949750929550565b7f4e487b7100000000000000000000000000000000000000000000000000000000600052602260045260246000fd5b6000600282049050600182168061094e57607f821691505b60208210810361096157610960610907565b5b50919050565b60008190508160005260206000209050919050565b60006020601f8301049050919050565b600082821b905092915050565b6000600883026109c97fffffffffffffffffffffffffffffffffffffffffffffffffffffffffffffffff8261098c565b6109d3868361098c565b95508019841693508086168417925050509392505050565b6000819050919050565b6000610a10610a0b610a06846105e6565b6109eb565b6105e6565b9050919050565b6000819050919050565b610a2a836109f5565b610a3e610a3682610a17565b848454610999565b825550505050565b600090565b610a53610a46565b610a5e818484610a21565b505050565b5b81811015610a8257610a77600082610a4b565b600181019050610a64565b5050565b601f821115610ac757610a9881610967565b610aa18461097c565b81016020851015610ab0578190505b610ac4610abc8561097c565b830182610a63565b50505b505050565b600082821c905092915050565b6000610aea60001984600802610acc565b1980831691505092915050565b6000610b038383610ad9565b9150826002028217905092915050565b610b1c826104c4565b67ffffffffffffffff811115610b3557610b346106e6565b5b610b3f8254610936565b610b4a828285610a86565b600060209050601f831160018114610b7d5760008415610b6b578287015190505b610b758582610af7565b865550610bdd565b601f198416610b8b86610967565b60005b82811015610bb357848901518255600182019150602085019450602081019050610b8e565b86831015610bd05784890151610bcc601f891682610ad9565b8355505b6001600288020188555050505b505050505050565b60006060820190508181036000830152610bff818661051b565b9050610c0e6020830185610649565b610c1b6040830184610649565b94935050505056fea264697066735822122007aa24e6506b776593031346b9d89e06a8139c6798e360e56b7833245e01116d64736f6c63430008110033",
  "linkReferences": {},
  "deployedLinkReferences": {}
}