{
  "_format": "hh-sol-artifact-1",
  "contractName": "Dappazon",
  "sourceName": "contracts/Dappazon.sol",
  "abi": [
    {
      "inputs": [],
      "stateMutability": "nonpayable",
      "type": "constructor"
    },
    {
      "anonymous": false,
      "inputs": [
        {
          "indexed": false,
          "internalType": "address",
          "name": "buyer",
          "type": "address"
        },
        {
          "indexed": false,
          "internalType": "uint256",
          "name": "orderId",
          "type": "uint256"
        },
        {
          "indexed": false,
          "internalType": "uint256",
          "name": "itemId",
          "type": "uint256"
        }
      ],
      "name": "Buy",
      "type": "event"
    },
    {
      "anonymous": false,
      "inputs": [
        {
          "indexed": false,
          "internalType": "string",
          "name": "name",
          "type": "string"
        },
        {
          "indexed": false,
          "internalType": "uint256",
          "name": "cost",
          "type": "uint256"
        },
        {
          "indexed": false,
          "internalType": "uint256",
          "name": "quantity",
          "type": "uint256"
        }
      ],
      "name": "List",
      "type": "event"
    },
    {
      "inputs": [
        {
          "internalType": "uint256",
          "name": "_id",
          "type": "uint256"
        }
      ],
      "name": "buy",
      "outputs": [],
      "stateMutability": "payable",
      "type": "function"
    },
    {
      "inputs": [
        {
          "internalType": "uint256",
          "name": "",
          "type": "uint256"
        }
      ],
      "name": "items",
      "outputs": [
        {
          "internalType": "uint256",
          "name": "id",
          "type": "uint256"
        },
        {
          "internalType": "string",
          "name": "name",
          "type": "string"
        },
        {
          "internalType": "string",
          "name": "category",
          "type": "string"
        },
        {
          "internalType": "string",
          "name": "image",
          "type": "string"
        },
        {
          "internalType": "uint256",
          "name": "cost",
          "type": "uint256"
        },
        {
          "internalType": "uint256",
          "name": "rating",
          "type": "uint256"
        },
        {
          "internalType": "uint256",
          "name": "stock",
          "type": "uint256"
        }
      ],
      "stateMutability": "view",
      "type": "function"
    },
    {
      "inputs": [
        {
          "internalType": "uint256",
          "name": "_id",
          "type": "uint256"
        },
        {
          "internalType": "string",
          "name": "_name",
          "type": "string"
        },
        {
          "internalType": "string",
          "name": "_category",
          "type": "string"
        },
        {
          "internalType": "string",
          "name": "_image",
          "type": "string"
        },
        {
          "internalType": "uint256",
          "name": "_cost",
          "type": "uint256"
        },
        {
          "internalType": "uint256",
          "name": "_rating",
          "type": "uint256"
        },
        {
          "internalType": "uint256",
          "name": "_stock",
          "type": "uint256"
        }
      ],
      "name": "list",
      "outputs": [],
      "stateMutability": "nonpayable",
      "type": "function"
    },
    {
      "inputs": [],
      "name": "name",
      "outputs": [
        {
          "internalType": "string",
          "name": "",
          "type": "string"
        }
      ],
      "stateMutability": "view",
      "type": "function"
    },
    {
      "inputs": [
        {
          "internalType": "address",
          "name": "",
          "type": "address"
        }
      ],
      "name": "orderCount",
      "outputs": [
        {
          "internalType": "uint256",
          "name": "",
          "type": "uint256"
        }
      ],
      "stateMutability": "view",
      "type": "function"
    },
    {
      "inputs": [
        {
          "internalType": "address",
          "name": "",
          "type": "address"
        },
        {
          "internalType": "uint256",
          "name": "",
          "type": "uint256"
        }
      ],
      "name": "orders",
      "outputs": [
        {
          "internalType": "uint256",
          "name": "time",
          "type": "uint256"
        },
        {
          "components": [
            {
              "internalType": "uint256",
              "name": "id",
              "type": "uint256"
            },
            {
              "internalType": "string",
              "name": "name",
              "type": "string"
            },
            {
              "internalType": "string",
              "name": "category",
              "type": "string"
            },
            {
              "internalType": "string",
              "name": "image",
              "type": "string"
            },
            {
              "internalType": "uint256",
              "name": "cost",
              "type": "uint256"
            },
            {
              "internalType": "uint256",
              "name": "rating",
              "type": "uint256"
            },
            {
              "internalType": "uint256",
              "name": "stock",
              "type": "uint256"
            }
          ],
          "internalType": "struct Dappazon.Item",
          "name": "item",
          "type": "tuple"
        }
      ],
      "stateMutability": "view",
      "type": "function"
    },
    {
      "inputs": [],
      "name": "owner",
      "outputs": [
        {
          "internalType": "address",
          "name": "",
          "type": "address"
        }
      ],
      "stateMutability": "view",
      "type": "function"
    },
    {
      "inputs": [],
      "name": "withdraw",
      "outputs": [],
      "stateMutability": "nonpayable",
      "type": "function"
    }
  ],
  "bytecode": "0x60806040523480156200001157600080fd5b506040518060400160405280600881526020017f44617070617a6f6e000000000000000000000000000000000000000000000000815250600090816200005891906200031a565b5033600160006101000a81548173ffffffffffffffffffffffffffffffffffffffff021916908373ffffffffffffffffffffffffffffffffffffffff16021790555062000401565b600081519050919050565b7f4e487b7100000000000000000000000000000000000000000000000000000000600052604160045260246000fd5b7f4e487b7100000000000000000000000000000000000000000000000000000000600052602260045260246000fd5b600060028204905060018216806200012257607f821691505b602082108103620001385762000137620000da565b5b50919050565b60008190508160005260206000209050919050565b60006020601f8301049050919050565b600082821b905092915050565b600060088302620001a27fffffffffffffffffffffffffffffffffffffffffffffffffffffffffffffffff8262000163565b620001ae868362000163565b95508019841693508086168417925050509392505050565b6000819050919050565b6000819050919050565b6000620001fb620001f5620001ef84620001c6565b620001d0565b620001c6565b9050919050565b6000819050919050565b6200021783620001da565b6200022f620002268262000202565b84845462000170565b825550505050565b600090565b6200024662000237565b620002538184846200020c565b505050565b5b818110156200027b576200026f6000826200023c565b60018101905062000259565b5050565b601f821115620002ca5762000294816200013e565b6200029f8462000153565b81016020851015620002af578190505b620002c7620002be8562000153565b83018262000258565b50505b505050565b600082821c905092915050565b6000620002ef60001984600802620002cf565b1980831691505092915050565b60006200030a8383620002dc565b9150826002028217905092915050565b6200032582620000a0565b67ffffffffffffffff811115620003415762000340620000ab565b5b6200034d825462000109565b6200035a8282856200027f565b600060209050601f8311600181146200039257600084156200037d578287015190505b620003898582620002fc565b865550620003f9565b601f198416620003a2866200013e565b60005b82811015620003cc57848901518255600182019150602085019450602081019050620003a5565b86831015620003ec5784890151620003e8601f891682620002dc565b8355505b6001600288020188555050505b505050505050565b6117ef80620004116000396000f3fe60806040526004361061007b5760003560e01c80638da5cb5b1161004e5780638da5cb5b1461013d578063bfb231d214610168578063d96a094a146101ab578063eea8a7e8146101c75761007b565b806306fdde03146100805780633ccfd60b146100ab578063713d856b146100c2578063793b8c6d146100ff575b600080fd5b34801561008c57600080fd5b506100956101f0565b6040516100a29190610ddb565b60405180910390f35b3480156100b757600080fd5b506100c061027e565b005b3480156100ce57600080fd5b506100e960048036038101906100e49190610e6f565b610373565b6040516100f69190610eb5565b60405180910390f35b34801561010b57600080fd5b5061012660048036038101906101219190610efc565b61038b565b60405161013492919061103f565b60405180910390f35b34801561014957600080fd5b506101526105a4565b60405161015f919061107e565b60405180910390f35b34801561017457600080fd5b5061018f600480360381019061018a9190611099565b6105ca565b6040516101a297969594939291906110c6565b60405180910390f35b6101c560048036038101906101c09190611099565b6107a4565b005b3480156101d357600080fd5b506101ee60048036038101906101e9919061127f565b610bf4565b005b600080546101fd906113a4565b80601f0160208091040260200160405190810160405280929190818152602001828054610229906113a4565b80156102765780601f1061024b57610100808354040283529160200191610276565b820191906000526020600020905b81548152906001019060200180831161025957829003601f168201915b505050505081565b600160009054906101000a900473ffffffffffffffffffffffffffffffffffffffff1673ffffffffffffffffffffffffffffffffffffffff163373ffffffffffffffffffffffffffffffffffffffff16146102d857600080fd5b6000600160009054906101000a900473ffffffffffffffffffffffffffffffffffffffff1673ffffffffffffffffffffffffffffffffffffffff164760405161032090611406565b60006040518083038185875af1925050503d806000811461035d576040519150601f19603f3d011682016040523d82523d6000602084013e610362565b606091505b505090508061037057600080fd5b50565b60036020528060005260406000206000915090505481565b600460205281600052604060002060205280600052604060002060009150915050806000015490806001016040518060e0016040529081600082015481526020016001820180546103db906113a4565b80601f0160208091040260200160405190810160405280929190818152602001828054610407906113a4565b80156104545780601f1061042957610100808354040283529160200191610454565b820191906000526020600020905b81548152906001019060200180831161043757829003601f168201915b5050505050815260200160028201805461046d906113a4565b80601f0160208091040260200160405190810160405280929190818152602001828054610499906113a4565b80156104e65780601f106104bb576101008083540402835291602001916104e6565b820191906000526020600020905b8154815290600101906020018083116104c957829003601f168201915b505050505081526020016003820180546104ff906113a4565b80601f016020809104026020016040519081016040528092919081815260200182805461052b906113a4565b80156105785780601f1061054d57610100808354040283529160200191610578565b820191906000526020600020905b81548152906001019060200180831161055b57829003601f168201915b505050505081526020016004820154815260200160058201548152602001600682015481525050905082565b600160009054906101000a900473ffffffffffffffffffffffffffffffffffffffff1681565b60026020528060005260406000206000915090508060000154908060010180546105f3906113a4565b80601f016020809104026020016040519081016040528092919081815260200182805461061f906113a4565b801561066c5780601f106106415761010080835404028352916020019161066c565b820191906000526020600020905b81548152906001019060200180831161064f57829003601f168201915b505050505090806002018054610681906113a4565b80601f01602080910402602001604051908101604052809291908181526020018280546106ad906113a4565b80156106fa5780601f106106cf576101008083540402835291602001916106fa565b820191906000526020600020905b8154815290600101906020018083116106dd57829003601f168201915b50505050509080600301805461070f906113a4565b80601f016020809104026020016040519081016040528092919081815260200182805461073b906113a4565b80156107885780601f1061075d57610100808354040283529160200191610788565b820191906000526020600020905b81548152906001019060200180831161076b57829003601f168201915b5050505050908060040154908060050154908060060154905087565b6000600260008381526020019081526020016000206040518060e0016040529081600082015481526020016001820180546107de906113a4565b80601f016020809104026020016040519081016040528092919081815260200182805461080a906113a4565b80156108575780601f1061082c57610100808354040283529160200191610857565b820191906000526020600020905b81548152906001019060200180831161083a57829003601f168201915b50505050508152602001600282018054610870906113a4565b80601f016020809104026020016040519081016040528092919081815260200182805461089c906113a4565b80156108e95780601f106108be576101008083540402835291602001916108e9565b820191906000526020600020905b8154815290600101906020018083116108cc57829003601f168201915b50505050508152602001600382018054610902906113a4565b80601f016020809104026020016040519081016040528092919081815260200182805461092e906113a4565b801561097b5780601f106109505761010080835404028352916020019161097b565b820191906000526020600020905b81548152906001019060200180831161095e57829003601f168201915b505050505081526020016004820154815260200160058201548152602001600682015481525050905080608001513410156109b557600080fd5b60008160c00151116109c657600080fd5b60006040518060400160405280428152602001838152509050600360003373ffffffffffffffffffffffffffffffffffffffff1673ffffffffffffffffffffffffffffffffffffffff1681526020019081526020016000206000815480929190610a2f9061144a565b919050555080600460003373ffffffffffffffffffffffffffffffffffffffff1673ffffffffffffffffffffffffffffffffffffffff1681526020019081526020016000206000600360003373ffffffffffffffffffffffffffffffffffffffff1673ffffffffffffffffffffffffffffffffffffffff16815260200190815260200160002054815260200190815260200160002060008201518160000155602082015181600101600082015181600001556020820151816001019081610af6919061163e565b506040820151816002019081610b0c919061163e565b506060820151816003019081610b22919061163e565b506080820151816004015560a0820151816005015560c08201518160060155505090505060018260c00151610b579190611710565b60026000858152602001908152602001600020600601819055507f1cbc5ab135991bd2b6a4b034a04aa2aa086dac1371cb9b16b8b5e2ed6b036bed33600360003373ffffffffffffffffffffffffffffffffffffffff1673ffffffffffffffffffffffffffffffffffffffff168152602001908152602001600020548460000151604051610be793929190611744565b60405180910390a1505050565b600160009054906101000a900473ffffffffffffffffffffffffffffffffffffffff1673ffffffffffffffffffffffffffffffffffffffff163373ffffffffffffffffffffffffffffffffffffffff1614610c4e57600080fd5b60006040518060e0016040528089815260200188815260200187815260200186815260200185815260200184815260200183815250905080600260008a8152602001908152602001600020600082015181600001556020820151816001019081610cb8919061163e565b506040820151816002019081610cce919061163e565b506060820151816003019081610ce4919061163e565b506080820151816004015560a0820151816005015560c082015181600601559050507ffdbe2a012c10ec01592653978eaa09b5ca60b143a0e617505b2ebcbd911ec5b8878584604051610d399392919061177b565b60405180910390a15050505050505050565b600081519050919050565b600082825260208201905092915050565b60005b83811015610d85578082015181840152602081019050610d6a565b60008484015250505050565b6000601f19601f8301169050919050565b6000610dad82610d4b565b610db78185610d56565b9350610dc7818560208601610d67565b610dd081610d91565b840191505092915050565b60006020820190508181036000830152610df58184610da2565b905092915050565b6000604051905090565b600080fd5b600080fd5b600073ffffffffffffffffffffffffffffffffffffffff82169050919050565b6000610e3c82610e11565b9050919050565b610e4c81610e31565b8114610e5757600080fd5b50565b600081359050610e6981610e43565b92915050565b600060208284031215610e8557610e84610e07565b5b6000610e9384828501610e5a565b91505092915050565b6000819050919050565b610eaf81610e9c565b82525050565b6000602082019050610eca6000830184610ea6565b92915050565b610ed981610e9c565b8114610ee457600080fd5b50565b600081359050610ef681610ed0565b92915050565b60008060408385031215610f1357610f12610e07565b5b6000610f2185828601610e5a565b9250506020610f3285828601610ee7565b9150509250929050565b610f4581610e9c565b82525050565b600082825260208201905092915050565b6000610f6782610d4b565b610f718185610f4b565b9350610f81818560208601610d67565b610f8a81610d91565b840191505092915050565b600060e083016000830151610fad6000860182610f3c565b5060208301518482036020860152610fc58282610f5c565b91505060408301518482036040860152610fdf8282610f5c565b91505060608301518482036060860152610ff98282610f5c565b915050608083015161100e6080860182610f3c565b5060a083015161102160a0860182610f3c565b5060c083015161103460c0860182610f3c565b508091505092915050565b60006040820190506110546000830185610ea6565b81810360208301526110668184610f95565b90509392505050565b61107881610e31565b82525050565b6000602082019050611093600083018461106f565b92915050565b6000602082840312156110af576110ae610e07565b5b60006110bd84828501610ee7565b91505092915050565b600060e0820190506110db600083018a610ea6565b81810360208301526110ed8189610da2565b905081810360408301526111018188610da2565b905081810360608301526111158187610da2565b90506111246080830186610ea6565b61113160a0830185610ea6565b61113e60c0830184610ea6565b98975050505050505050565b600080fd5b600080fd5b7f4e487b7100000000000000000000000000000000000000000000000000000000600052604160045260246000fd5b61118c82610d91565b810181811067ffffffffffffffff821117156111ab576111aa611154565b5b80604052505050565b60006111be610dfd565b90506111ca8282611183565b919050565b600067ffffffffffffffff8211156111ea576111e9611154565b5b6111f382610d91565b9050602081019050919050565b82818337600083830152505050565b600061122261121d846111cf565b6111b4565b90508281526020810184848401111561123e5761123d61114f565b5b611249848285611200565b509392505050565b600082601f8301126112665761126561114a565b5b813561127684826020860161120f565b91505092915050565b600080600080600080600060e0888a03121561129e5761129d610e07565b5b60006112ac8a828b01610ee7565b975050602088013567ffffffffffffffff8111156112cd576112cc610e0c565b5b6112d98a828b01611251565b965050604088013567ffffffffffffffff8111156112fa576112f9610e0c565b5b6113068a828b01611251565b955050606088013567ffffffffffffffff81111561132757611326610e0c565b5b6113338a828b01611251565b94505060806113448a828b01610ee7565b93505060a06113558a828b01610ee7565b92505060c06113668a828b01610ee7565b91505092959891949750929550565b7f4e487b7100000000000000000000000000000000000000000000000000000000600052602260045260246000fd5b600060028204905060018216806113bc57607f821691505b6020821081036113cf576113ce611375565b5b50919050565b600081905092915050565b50565b60006113f06000836113d5565b91506113fb826113e0565b600082019050919050565b6000611411826113e3565b9150819050919050565b7f4e487b7100000000000000000000000000000000000000000000000000000000600052601160045260246000fd5b600061145582610e9c565b91507fffffffffffffffffffffffffffffffffffffffffffffffffffffffffffffffff82036114875761148661141b565b5b600182019050919050565b60008190508160005260206000209050919050565b60006020601f8301049050919050565b600082821b905092915050565b6000600883026114f47fffffffffffffffffffffffffffffffffffffffffffffffffffffffffffffffff826114b7565b6114fe86836114b7565b95508019841693508086168417925050509392505050565b6000819050919050565b600061153b61153661153184610e9c565b611516565b610e9c565b9050919050565b6000819050919050565b61155583611520565b61156961156182611542565b8484546114c4565b825550505050565b600090565b61157e611571565b61158981848461154c565b505050565b5b818110156115ad576115a2600082611576565b60018101905061158f565b5050565b601f8211156115f2576115c381611492565b6115cc846114a7565b810160208510156115db578190505b6115ef6115e7856114a7565b83018261158e565b50505b505050565b600082821c905092915050565b6000611615600019846008026115f7565b1980831691505092915050565b600061162e8383611604565b9150826002028217905092915050565b61164782610d4b565b67ffffffffffffffff8111156116605761165f611154565b5b61166a82546113a4565b6116758282856115b1565b600060209050601f8311600181146116a85760008415611696578287015190505b6116a08582611622565b865550611708565b601f1984166116b686611492565b60005b828110156116de578489015182556001820191506020850194506020810190506116b9565b868310156116fb57848901516116f7601f891682611604565b8355505b6001600288020188555050505b505050505050565b600061171b82610e9c565b915061172683610e9c565b925082820390508181111561173e5761173d61141b565b5b92915050565b6000606082019050611759600083018661106f565b6117666020830185610ea6565b6117736040830184610ea6565b949350505050565b600060608201905081810360008301526117958186610da2565b90506117a46020830185610ea6565b6117b16040830184610ea6565b94935050505056fea264697066735822122015df3c03db9598645cb8a6da323093ecf66bb7b9c538dcc16387f912d2e9c51464736f6c63430008110033",
  "linkReferences": {},
  "deployedLinkReferences": {}
}